{"abi":[{"type":"constructor","inputs":[],"stateMutability":"nonpayable"},{"type":"function","name":"balanceOf","inputs":[{"name":"","type":"address","internalType":"address"}],"outputs":[{"name":"","type":"uint256","internalType":"uint256"}],"stateMutability":"view"},{"type":"function","name":"burn","inputs":[{"name":"amount","type":"uint256","internalType":"uint256"}],"outputs":[],"stateMutability":"nonpayable"},{"type":"function","name":"burnForBridge","inputs":[{"name":"amount","type":"uint256","internalType":"uint256"},{"name":"destinationChain","type":"string","internalType":"string"}],"outputs":[],"stateMutability":"nonpayable"},{"type":"function","name":"decimals","inputs":[],"outputs":[{"name":"","type":"uint8","internalType":"uint8"}],"stateMutability":"view"},{"type":"function","name":"mint","inputs":[{"name":"to","type":"address","internalType":"address"},{"name":"amount","type":"uint256","internalType":"uint256"}],"outputs":[],"stateMutability":"nonpayable"},{"type":"function","name":"mintForBridge","inputs":[{"name":"to","type":"address","internalType":"address"},{"name":"amount","type":"uint256","internalType":"uint256"},{"name":"sourceChain","type":"string","internalType":"string"}],"outputs":[],"stateMutability":"nonpayable"},{"type":"function","name":"name","inputs":[],"outputs":[{"name":"","type":"string","internalType":"string"}],"stateMutability":"view"},{"type":"function","name":"owner","inputs":[],"outputs":[{"name":"","type":"address","internalType":"address"}],"stateMutability":"view"},{"type":"function","name":"symbol","inputs":[],"outputs":[{"name":"","type":"string","internalType":"string"}],"stateMutability":"view"},{"type":"function","name":"totalSupply","inputs":[],"outputs":[{"name":"","type":"uint256","internalType":"uint256"}],"stateMutability":"view"},{"type":"event","name":"TokensBurned","inputs":[{"name":"burner","type":"address","indexed":true,"internalType":"address"},{"name":"amount","type":"uint256","indexed":false,"internalType":"uint256"},{"name":"destinationChain","type":"string","indexed":false,"internalType":"string"}],"anonymous":false},{"type":"event","name":"TokensMinted","inputs":[{"name":"minter","type":"address","indexed":true,"internalType":"address"},{"name":"amount","type":"uint256","indexed":false,"internalType":"uint256"},{"name":"sourceChain","type":"string","indexed":false,"internalType":"string"}],"anonymous":false}],"bytecode":{"object":"0x60c0604052600960809081526824a12a102a37b5b2b760b91b60a0525f906100279082610118565b5060408051808201909152600381526212509560ea1b602082015260019061004f9082610118565b506002805460ff19166012179055348015610068575f5ffd5b50600480546001600160a01b031916331790556101d2565b634e487b7160e01b5f52604160045260245ffd5b600181811c908216806100a857607f821691505b6020821081036100c657634e487b7160e01b5f52602260045260245ffd5b50919050565b601f82111561011357805f5260205f20601f840160051c810160208510156100f15750805b601f840160051c820191505b81811015610110575f81556001016100fd565b50505b505050565b81516001600160401b0381111561013157610131610080565b6101458161013f8454610094565b846100cc565b6020601f821160018114610177575f83156101605750848201515b5f19600385901b1c1916600184901b178455610110565b5f84815260208120601f198516915b828110156101a65787850151825560209485019460019092019101610186565b50848210156101c357868401515f19600387901b60f8161c191681555b50505050600190811b01905550565b610625806101df5f395ff3fe608060405234801561000f575f5ffd5b506004361061009b575f3560e01c806342966c681161006357806342966c681461011b57806370a082311461012e5780638da5cb5b1461014d57806395d89b4114610178578063d70d7c7814610180575f5ffd5b806306fdde031461009f57806314a2821f146100bd57806318160ddd146100d2578063313ce567146100e957806340c10f1914610108575b5f5ffd5b6100a7610193565b6040516100b491906103b0565b60405180910390f35b6100d06100cb366004610445565b61021e565b005b6100db60035481565b6040519081526020016100b4565b6002546100f69060ff1681565b60405160ff90911681526020016100b4565b6100d061011636600461049b565b610273565b6100d06101293660046104c3565b6102bb565b6100db61013c3660046104da565b60056020525f908152604090205481565b600454610160906001600160a01b031681565b6040516001600160a01b0390911681526020016100b4565b6100a7610350565b6100d061018e3660046104fa565b61035d565b5f805461019f90610542565b80601f01602080910402602001604051908101604052809291908181526020018280546101cb90610542565b80156102165780601f106101ed57610100808354040283529160200191610216565b820191905f5260205f20905b8154815290600101906020018083116101f957829003601f168201915b505050505081565b6102288484610273565b836001600160a01b03167f9d89e36eadf856db0ad9ffb5a569e07f95634dddd9501141ecf04820484ad0dc8484846040516102659392919061057a565b60405180910390a250505050565b6001600160a01b0382165f908152600560205260408120805483929061029a9084906105c3565b925050819055508060035f8282546102b291906105c3565b90915550505050565b335f908152600560205260409020548111156103125760405162461bcd60e51b81526020600482015260126024820152714e6f7420656e6f7567682062616c616e636560701b604482015260640160405180910390fd5b335f90815260056020526040812080548392906103309084906105dc565b925050819055508060035f82825461034891906105dc565b909155505050565b6001805461019f90610542565b610366836102bb565b336001600160a01b03167ffad31924d655455395c87544c8aa1ffdb5a7505a22a3c2e03f28003b6556a75f8484846040516103a39392919061057a565b60405180910390a2505050565b602081525f82518060208401528060208501604085015e5f604082850101526040601f19601f83011684010191505092915050565b80356001600160a01b03811681146103fb575f5ffd5b919050565b5f5f83601f840112610410575f5ffd5b50813567ffffffffffffffff811115610427575f5ffd5b60208301915083602082850101111561043e575f5ffd5b9250929050565b5f5f5f5f60608587031215610458575f5ffd5b610461856103e5565b935060208501359250604085013567ffffffffffffffff811115610483575f5ffd5b61048f87828801610400565b95989497509550505050565b5f5f604083850312156104ac575f5ffd5b6104b5836103e5565b946020939093013593505050565b5f602082840312156104d3575f5ffd5b5035919050565b5f602082840312156104ea575f5ffd5b6104f3826103e5565b9392505050565b5f5f5f6040848603121561050c575f5ffd5b83359250602084013567ffffffffffffffff811115610529575f5ffd5b61053586828701610400565b9497909650939450505050565b600181811c9082168061055657607f821691505b60208210810361057457634e487b7160e01b5f52602260045260245ffd5b50919050565b83815260406020820152816040820152818360608301375f818301606090810191909152601f909201601f1916010192915050565b634e487b7160e01b5f52601160045260245ffd5b808201808211156105d6576105d66105af565b92915050565b818103818111156105d6576105d66105af56fea2646970667358221220c72287c460e5ca7daa1e9d0c58da17d9301feb132f9b498f4f4c94e48976dc9064736f6c634300081c0033","linkReferences":{}},"methodIdentifiers":{"balanceOf(address)":"70a08231","burn(uint256)":"42966c68","burnForBridge(uint256,string)":"d70d7c78","decimals()":"313ce567","mint(address,uint256)":"40c10f19","mintForBridge(address,uint256,string)":"14a2821f","name()":"06fdde03","owner()":"8da5cb5b","symbol()":"95d89b41","totalSupply()":"18160ddd"},"id":0}